S00F0000424C5F4D41494E2E7372656303
S11370000C942A380C9447380C9447380C9447381D
S11370100C9447380C9447380C9447380C944738F0
S11370200C9447380C9447380C9447380C944738E0
S11370300C9447380C94FB3B0C9447380C94243C38
S11370400C9447380C9447380C9447380C944738C0
S11370500C94473811241FBECFE5D8E0DEBFCDBF66
S113706010E0A0E6B0E0EEE9F8E702C005900D926A
S1137070A038B107D9F721E0A0E8B0E001C01D9223
S1137080A139B207E1F70E94033A0C944D3C0C94E9
S1137090003821E020938C00FC01219120938B0087
S11370A0F0938900E093880060938A000895CF9359
S11370B0DF9380918600811108C00E94F03B809389
S11370C0900181E08093860019C0C0918500D0E0D2
S11370D00E94F03BCF56DF4F8883809185008F5FFD
S11370E08093850060919001861308C010928500FA
S11370F01092860081E990E00E944938DF91CF9197
S11371000895CF93DF93DB017FB7F894EC01D69514
S1137110DC2FCC27D795C79507B600FCFDCFE199A6
S1137120FECF83E0FE0180935700E89520E030E035
S11371301CC06C91AD014E5F5F4F11968C9190E035
S1137140982F8827860F911D07B600FCFDCFE19983
S1137150FECFF901EC0FFD1F61E00C0160935700B5
S1137160E89511242E5F3F4FDA012038310508F3EA
S113717007B600FCFDCFE199FECF85E0FE018093C8
S11371805700E89507B600FCFDCFE199FECF81E1F9
S113719080935700E8957FBFDF91CF9108958FE7E3
S11371A00E94EC3B089580918B00805C0E94EC3B34
S11371B0089581110AC081E090E09CBF8BBF8BB71A
S11371C09CB78D7F9CBF8BBF089581E090E09CBFEE
S11371D08BBF82E090E09CBF8BBF0895FC012FEF32
S11371E03FEF19C084912827822F82958227082E89
S11371F0869586958025082E869580258770022E93
S1137200232F869507948795302D282706948795F4
S1137210302528273196E617F70720F3241735077A
S113722011F080E0089581E0089580918C00882316
S113723009F4DFC080918B00843341F130F4803154
S113724059F0813309F495C0CEC0863309F44BC09C
S1137250873309F47BC0C7C0E0918800F0918900AE
S11372608081833071F480918A00823051F480915E
S11372708700811106C00E94D33881E08093870083
S1137280B6C0109287000E94CF38B1C080918700A9
S11372908130E1F480918A008330D1F4E091880058
S11372A0F0918900808190E0982F88272181822B9A
S11372B090938400809383008115984358F40E942E
S11372C0D33882E08093870081E005C080E003C06A
S11372D080E001C080E0813009F489C01092870009
S11372E00E94CF3884C080918700823051F580910C
S11372F08A00813831F5609188007091890080910D
S1137300820090E00E9481380E94D33880918200EC
S11373108F5F8093820080918000909181008058DB
S11373209F4F90938100809380002091830030913F
S113733084008217930709F05AC083E08093870082
S113734056C0109287000E94CF3851C080918700A8
S1137350833051F480918A00813031F40E94D33813
S113736084E08093870043C0109287000E94CF3846
S11373703EC080918700843089F580918A008330F3
S113738069F5E0918800F0918900408150E0542F24
S113739044278181482B609183007091840080E0B0
S11373A090E00E94EE388823B1F00E94D33860E068
S11373B080E090E00E94CB3B80E00E94D9388FEFC0
S11373C090E722E0815090402040E1F700C00000A7
S11373D00C94000005C00E94CF3802C00E94CF3830
S11373E01092870004C0109287000E94CF38109238
S11373F08C00089580E180938B000E94D33881E053
S1137400809387000895CF93DF930E942E3B87E5F6
S113741098E30E94F63B80E090E00E94D73BD82F8F
S113742081E090E00E94D73BC82F91E0DF3F09F054
S113743090E081E0C11180E0892B01F161E080E1FD
S11374400E943E3B61E082E10E943E3B0E94E03BA1
S113745061E081E10E943E3B81E00E94D9380E94B4
S1137460F23B7894C11107C00E94FA396FEF81E0B2
S113747090E00E94CB3B0E941539FDCF0C94000094
S113748081E090E0DF91CF910895982F969596959D
S113749096958770613009F441C020F0623009F498
S11374A08DC00895913099F028F09230E9F093302E
S11374B041F108954AB321E030E0B90102C0660FFA
S11374C0771F8A95E2F7CB01842B8ABB089547B3D3
S11374D021E030E0B90102C0660F771F8A95E2F718
S11374E0CB01842B87BB089544B321E030E0B9017C
S11374F002C0660F771F8A95E2F7CB01842B84BB09
S1137500089541B321E030E0B90102C0660F771F4E
S11375108A95E2F7CB01842B81BB08959130C1F0A9
S113752028F0923039F19330B9F108954AB321E04B
S113753030E0B90102C0660F771F8A95E2F7CB01EC
S11375408095942F98239ABB9BB389238BBB089572
S113755047B321E030E0B90102C0660F771F8A9576
S1137560E2F7CB018095942F982397BB98B3892396
S113757088BB089544B321E030E0B90102C0660F2E
S1137580771F8A95E2F7CB018095942F982394BBBB
S113759095B3892385BB089541B321E030E0B90157
S11375A002C0660F771F8A95E2F7CB018095942F6E
S11375B0982391BB92B3892382BB08959130C1F083
S11375C028F0923039F19330B9F108954AB321E0AB
S11375D030E0B90102C0660F771F8A95E2F7CB014C
S11375E0962F909594239ABB9BB3892B8BBB0895BC
S11375F047B321E030E0B90102C0660F771F8A95D6
S1137600E2F7CB01962F9095942397BB98B3892BDF
S113761088BB089544B321E030E0B90102C0660F8D
S1137620771F8A95E2F7CB01962F9095942394BB0C
S113763095B3892B85BB089541B321E030E0B901AE
S113764002C0660F771F8A95E2F7CB01962F9095BB
S1137650942391BB92B3892B82BB0895CF93C0E04E
S113766009C0EC2FF0E0E05AFF4F60818C2F0E949C
S1137670453ACF5FC032A8F3CF910895982F9695DD
S1137680969596958770913041F138F0923009F4CF
S113769044C0933009F460C00895662381F06130DA
S11376A009F078C04BB321E030E0B90102C0660FA5
S11376B0771F8A95E2F7CB01842B8BBB08954BB3DC
S11376C021E030E0B90102C0660F771F8A95E2F726
S11376D0CB01809584238BBB0895662381F06130B0
S11376E009F058C048B321E030E0B90102C0660F88
S11376F0771F8A95E2F7CB01842B88BB089548B3A2
S113770021E030E0B90102C0660F771F8A95E2F7E5
S1137710CB018095842388BB0895662379F061307A
S1137720C9F545B321E030E0B90102C0660F771F07
S11377308A95E2F7CB01842B85BB089545B321E0FC
S113774030E0B90102C0660F771F8A95E2F7CB01DA
S11377508095842385BB0895662379F06130D1F444
S113776042B321E030E0B90102C0660F771F8A9569
S1137770E2F7CB01842B82BB089542B321E030E0D1
S1137780B90102C0660F771F8A95E2F7CB01809595
S1137790842382BB0895E199FECF9FBB8EBB6DBB52
S11377A08CB384608CBB8CB382608CBB0895E199EC
S11377B0FECF9FBB8EBB8CB381608CBB8DB3089511
S11377C08BB18D7F8BB983E389B98AB188608AB91B
S11377D08AB180618AB908955D9BFECF8CB9089502
S11377E08CB108958AB180688AB9089590938E0007
S11377F080938D0008951F920F920FB60F9211245B
S11378002F933F934F935F936F937F938F939F93A4
S1137810AF93BF93EF93FF93E0918D00F0918E00AF
S1137820309709F00995FF91EF91BF91AF919F9126
S11378308F917F916F915F914F913F912F910F9015
S11378400FBE0F901F9018951F920F920FB60F92B4
S113785011242F933F934F935F936F937F938F9351
S11378609F93AF93BF93EF93FF93E0918F00F091B9
S11378709000309709F00995FF91EF91BF91AF9176
S11378809F918F917F916F915F914F913F912F9134
S11178900F900FBE0F901F901895F894FFCF25
S113789E01000000000000000000000000000000D5
S11378AE00000000000000000100020202000100BE
S90370008C
